{
  "contractName": "RBAC",
  "abi": [
    {
      "anonymous": false,
      "inputs": [
        {
          "indexed": false,
          "internalType": "string",
          "name": "child",
          "type": "string"
        },
        {
          "indexed": false,
          "internalType": "string",
          "name": "parent",
          "type": "string"
        },
        {
          "indexed": false,
          "internalType": "address",
          "name": "_child",
          "type": "address"
        },
        {
          "indexed": false,
          "internalType": "address",
          "name": "_parent",
          "type": "address"
        }
      ],
      "name": "AssociationAdded",
      "type": "event"
    },
    {
      "anonymous": false,
      "inputs": [
        {
          "indexed": false,
          "internalType": "address",
          "name": "account",
          "type": "address"
        },
        {
          "indexed": false,
          "internalType": "uint256",
          "name": "role",
          "type": "uint256"
        }
      ],
      "name": "BearerAdded",
      "type": "event"
    },
    {
      "anonymous": false,
      "inputs": [
        {
          "indexed": false,
          "internalType": "address",
          "name": "account",
          "type": "address"
        },
        {
          "indexed": false,
          "internalType": "uint256",
          "name": "role",
          "type": "uint256"
        }
      ],
      "name": "BearerRemoved",
      "type": "event"
    },
    {
      "anonymous": false,
      "inputs": [
        {
          "indexed": false,
          "internalType": "string",
          "name": "username",
          "type": "string"
        },
        {
          "indexed": false,
          "internalType": "address",
          "name": "_address",
          "type": "address"
        }
      ],
      "name": "ProfileAdded",
      "type": "event"
    },
    {
      "constant": true,
      "inputs": [
        {
          "internalType": "address",
          "name": "",
          "type": "address"
        }
      ],
      "name": "address_to_parents",
      "outputs": [
        {
          "internalType": "string",
          "name": "",
          "type": "string"
        }
      ],
      "payable": false,
      "stateMutability": "view",
      "type": "function"
    },
    {
      "constant": true,
      "inputs": [
        {
          "internalType": "address",
          "name": "",
          "type": "address"
        },
        {
          "internalType": "string",
          "name": "",
          "type": "string"
        }
      ],
      "name": "address_to_perm",
      "outputs": [
        {
          "internalType": "string",
          "name": "",
          "type": "string"
        }
      ],
      "payable": false,
      "stateMutability": "view",
      "type": "function"
    },
    {
      "constant": true,
      "inputs": [
        {
          "internalType": "address",
          "name": "",
          "type": "address"
        }
      ],
      "name": "allRoles_Address",
      "outputs": [
        {
          "internalType": "string",
          "name": "",
          "type": "string"
        }
      ],
      "payable": false,
      "stateMutability": "view",
      "type": "function"
    },
    {
      "constant": true,
      "inputs": [
        {
          "internalType": "string",
          "name": "",
          "type": "string"
        }
      ],
      "name": "allRoles_Names",
      "outputs": [
        {
          "internalType": "string",
          "name": "",
          "type": "string"
        }
      ],
      "payable": false,
      "stateMutability": "view",
      "type": "function"
    },
    {
      "constant": true,
      "inputs": [
        {
          "internalType": "uint256",
          "name": "",
          "type": "uint256"
        }
      ],
      "name": "associations",
      "outputs": [
        {
          "internalType": "string",
          "name": "__child",
          "type": "string"
        },
        {
          "internalType": "string",
          "name": "__parent",
          "type": "string"
        },
        {
          "internalType": "address",
          "name": "childd",
          "type": "address"
        },
        {
          "internalType": "address",
          "name": "parentt",
          "type": "address"
        }
      ],
      "payable": false,
      "stateMutability": "view",
      "type": "function"
    },
    {
      "constant": true,
      "inputs": [
        {
          "internalType": "string",
          "name": "",
          "type": "string"
        },
        {
          "internalType": "string",
          "name": "",
          "type": "string"
        }
      ],
      "name": "has_Role",
      "outputs": [
        {
          "internalType": "bool",
          "name": "",
          "type": "bool"
        }
      ],
      "payable": false,
      "stateMutability": "view",
      "type": "function"
    },
    {
      "constant": true,
      "inputs": [
        {
          "internalType": "string",
          "name": "",
          "type": "string"
        },
        {
          "internalType": "string",
          "name": "",
          "type": "string"
        }
      ],
      "name": "isAssoc",
      "outputs": [
        {
          "internalType": "bool",
          "name": "",
          "type": "bool"
        }
      ],
      "payable": false,
      "stateMutability": "view",
      "type": "function"
    },
    {
      "constant": true,
      "inputs": [
        {
          "internalType": "address",
          "name": "",
          "type": "address"
        },
        {
          "internalType": "address",
          "name": "",
          "type": "address"
        }
      ],
      "name": "isAssoc_address",
      "outputs": [
        {
          "internalType": "bool",
          "name": "",
          "type": "bool"
        }
      ],
      "payable": false,
      "stateMutability": "view",
      "type": "function"
    },
    {
      "constant": true,
      "inputs": [
        {
          "internalType": "string",
          "name": "",
          "type": "string"
        }
      ],
      "name": "names_to_parents",
      "outputs": [
        {
          "internalType": "string",
          "name": "",
          "type": "string"
        }
      ],
      "payable": false,
      "stateMutability": "view",
      "type": "function"
    },
    {
      "constant": true,
      "inputs": [
        {
          "internalType": "string",
          "name": "",
          "type": "string"
        }
      ],
      "name": "profileExists",
      "outputs": [
        {
          "internalType": "address",
          "name": "",
          "type": "address"
        }
      ],
      "payable": false,
      "stateMutability": "view",
      "type": "function"
    },
    {
      "constant": true,
      "inputs": [
        {
          "internalType": "address",
          "name": "",
          "type": "address"
        }
      ],
      "name": "profileName",
      "outputs": [
        {
          "internalType": "string",
          "name": "",
          "type": "string"
        }
      ],
      "payable": false,
      "stateMutability": "view",
      "type": "function"
    },
    {
      "constant": true,
      "inputs": [
        {
          "internalType": "uint256",
          "name": "",
          "type": "uint256"
        }
      ],
      "name": "profiles",
      "outputs": [
        {
          "internalType": "string",
          "name": "profile_description",
          "type": "string"
        },
        {
          "internalType": "address",
          "name": "username",
          "type": "address"
        }
      ],
      "payable": false,
      "stateMutability": "view",
      "type": "function"
    },
    {
      "constant": true,
      "inputs": [
        {
          "internalType": "uint256",
          "name": "",
          "type": "uint256"
        }
      ],
      "name": "roles",
      "outputs": [
        {
          "internalType": "string",
          "name": "description",
          "type": "string"
        }
      ],
      "payable": false,
      "stateMutability": "view",
      "type": "function"
    },
    {
      "constant": true,
      "inputs": [
        {
          "internalType": "string",
          "name": "",
          "type": "string"
        },
        {
          "internalType": "string",
          "name": "",
          "type": "string"
        }
      ],
      "name": "user_to_perm",
      "outputs": [
        {
          "internalType": "string",
          "name": "",
          "type": "string"
        }
      ],
      "payable": false,
      "stateMutability": "view",
      "type": "function"
    },
    {
      "constant": false,
      "inputs": [
        {
          "internalType": "string",
          "name": "user",
          "type": "string"
        },
        {
          "internalType": "string",
          "name": "model",
          "type": "string"
        },
        {
          "internalType": "address",
          "name": "_user",
          "type": "address"
        },
        {
          "internalType": "string",
          "name": "perm",
          "type": "string"
        }
      ],
      "name": "addPermissions",
      "outputs": [],
      "payable": false,
      "stateMutability": "nonpayable",
      "type": "function"
    },
    {
      "constant": true,
      "inputs": [
        {
          "internalType": "string",
          "name": "user",
          "type": "string"
        },
        {
          "internalType": "string",
          "name": "model",
          "type": "string"
        }
      ],
      "name": "queryPermissions",
      "outputs": [
        {
          "internalType": "string",
          "name": "children",
          "type": "string"
        }
      ],
      "payable": false,
      "stateMutability": "view",
      "type": "function"
    },
    {
      "constant": true,
      "inputs": [
        {
          "internalType": "address",
          "name": "_user",
          "type": "address"
        },
        {
          "internalType": "string",
          "name": "model",
          "type": "string"
        }
      ],
      "name": "queryAddressPermissions",
      "outputs": [
        {
          "internalType": "string",
          "name": "children",
          "type": "string"
        }
      ],
      "payable": false,
      "stateMutability": "view",
      "type": "function"
    },
    {
      "constant": false,
      "inputs": [
        {
          "internalType": "string",
          "name": "_username",
          "type": "string"
        },
        {
          "internalType": "address",
          "name": "user",
          "type": "address"
        }
      ],
      "name": "createProfile",
      "outputs": [
        {
          "internalType": "uint256",
          "name": "",
          "type": "uint256"
        }
      ],
      "payable": false,
      "stateMutability": "nonpayable",
      "type": "function"
    },
    {
      "constant": false,
      "inputs": [
        {
          "internalType": "string",
          "name": "_username",
          "type": "string"
        },
        {
          "internalType": "address",
          "name": "user",
          "type": "address"
        }
      ],
      "name": "deleteProfile",
      "outputs": [],
      "payable": false,
      "stateMutability": "nonpayable",
      "type": "function"
    },
    {
      "constant": true,
      "inputs": [
        {
          "internalType": "string",
          "name": "_username",
          "type": "string"
        }
      ],
      "name": "profileAddress",
      "outputs": [
        {
          "internalType": "address",
          "name": "",
          "type": "address"
        }
      ],
      "payable": false,
      "stateMutability": "view",
      "type": "function"
    },
    {
      "constant": true,
      "inputs": [
        {
          "internalType": "address",
          "name": "user",
          "type": "address"
        }
      ],
      "name": "profileUsername",
      "outputs": [
        {
          "internalType": "string",
          "name": "",
          "type": "string"
        }
      ],
      "payable": false,
      "stateMutability": "view",
      "type": "function"
    },
    {
      "constant": false,
      "inputs": [
        {
          "internalType": "string",
          "name": "_child",
          "type": "string"
        },
        {
          "internalType": "string",
          "name": "_parent",
          "type": "string"
        },
        {
          "internalType": "address",
          "name": "child",
          "type": "address"
        },
        {
          "internalType": "address",
          "name": "parent",
          "type": "address"
        }
      ],
      "name": "addChild",
      "outputs": [
        {
          "internalType": "uint256",
          "name": "",
          "type": "uint256"
        }
      ],
      "payable": false,
      "stateMutability": "nonpayable",
      "type": "function"
    },
    {
      "constant": false,
      "inputs": [
        {
          "internalType": "string",
          "name": "_child",
          "type": "string"
        },
        {
          "internalType": "string",
          "name": "_parent",
          "type": "string"
        }
      ],
      "name": "deleteAssoc",
      "outputs": [],
      "payable": false,
      "stateMutability": "nonpayable",
      "type": "function"
    },
    {
      "constant": false,
      "inputs": [
        {
          "internalType": "address",
          "name": "_child",
          "type": "address"
        },
        {
          "internalType": "address",
          "name": "_parent",
          "type": "address"
        }
      ],
      "name": "deleteAssocAddress",
      "outputs": [],
      "payable": false,
      "stateMutability": "nonpayable",
      "type": "function"
    },
    {
      "constant": true,
      "inputs": [
        {
          "internalType": "string",
          "name": "_child",
          "type": "string"
        },
        {
          "internalType": "string",
          "name": "_parent",
          "type": "string"
        }
      ],
      "name": "isChild",
      "outputs": [
        {
          "internalType": "bool",
          "name": "",
          "type": "bool"
        }
      ],
      "payable": false,
      "stateMutability": "view",
      "type": "function"
    },
    {
      "constant": true,
      "inputs": [
        {
          "internalType": "string",
          "name": "_child",
          "type": "string"
        }
      ],
      "name": "returnParent",
      "outputs": [
        {
          "internalType": "string",
          "name": "",
          "type": "string"
        }
      ],
      "payable": false,
      "stateMutability": "view",
      "type": "function"
    },
    {
      "constant": true,
      "inputs": [
        {
          "internalType": "address",
          "name": "_child",
          "type": "address"
        }
      ],
      "name": "returnParentFromAddress",
      "outputs": [
        {
          "internalType": "string",
          "name": "",
          "type": "string"
        }
      ],
      "payable": false,
      "stateMutability": "view",
      "type": "function"
    },
    {
      "constant": true,
      "inputs": [
        {
          "internalType": "address",
          "name": "child",
          "type": "address"
        },
        {
          "internalType": "address",
          "name": "parent",
          "type": "address"
        }
      ],
      "name": "isChild_address",
      "outputs": [
        {
          "internalType": "bool",
          "name": "",
          "type": "bool"
        }
      ],
      "payable": false,
      "stateMutability": "view",
      "type": "function"
    },
    {
      "constant": true,
      "inputs": [
        {
          "internalType": "string",
          "name": "username",
          "type": "string"
        }
      ],
      "name": "getChildrenNames",
      "outputs": [
        {
          "internalType": "bytes32[]",
          "name": "children",
          "type": "bytes32[]"
        }
      ],
      "payable": false,
      "stateMutability": "view",
      "type": "function"
    },
    {
      "constant": true,
      "inputs": [
        {
          "internalType": "string",
          "name": "username",
          "type": "string"
        }
      ],
      "name": "getParentsNames",
      "outputs": [
        {
          "internalType": "bytes32[]",
          "name": "parents",
          "type": "bytes32[]"
        }
      ],
      "payable": false,
      "stateMutability": "view",
      "type": "function"
    },
    {
      "constant": true,
      "inputs": [
        {
          "internalType": "address",
          "name": "_parent",
          "type": "address"
        }
      ],
      "name": "getChildrenAddresses",
      "outputs": [
        {
          "internalType": "address[]",
          "name": "children",
          "type": "address[]"
        }
      ],
      "payable": false,
      "stateMutability": "view",
      "type": "function"
    },
    {
      "constant": false,
      "inputs": [
        {
          "internalType": "string",
          "name": "username",
          "type": "string"
        },
        {
          "internalType": "address",
          "name": "_user",
          "type": "address"
        },
        {
          "internalType": "string",
          "name": "_role",
          "type": "string"
        }
      ],
      "name": "addRoleToUser",
      "outputs": [],
      "payable": false,
      "stateMutability": "nonpayable",
      "type": "function"
    },
    {
      "constant": false,
      "inputs": [
        {
          "internalType": "string",
          "name": "username",
          "type": "string"
        },
        {
          "internalType": "address",
          "name": "_user",
          "type": "address"
        },
        {
          "internalType": "string",
          "name": "_role",
          "type": "string"
        }
      ],
      "name": "revokeRole",
      "outputs": [],
      "payable": false,
      "stateMutability": "nonpayable",
      "type": "function"
    },
    {
      "constant": true,
      "inputs": [
        {
          "internalType": "string",
          "name": "username",
          "type": "string"
        },
        {
          "internalType": "string",
          "name": "_role",
          "type": "string"
        }
      ],
      "name": "hasRole",
      "outputs": [
        {
          "internalType": "bool",
          "name": "",
          "type": "bool"
        }
      ],
      "payable": false,
      "stateMutability": "view",
      "type": "function"
    },
    {
      "constant": true,
      "inputs": [
        {
          "internalType": "string",
          "name": "username",
          "type": "string"
        }
      ],
      "name": "getRolesfromNames",
      "outputs": [
        {
          "internalType": "string",
          "name": "",
          "type": "string"
        }
      ],
      "payable": false,
      "stateMutability": "view",
      "type": "function"
    },
    {
      "constant": true,
      "inputs": [
        {
          "internalType": "address",
          "name": "_user",
          "type": "address"
        }
      ],
      "name": "getRolesfromAddress",
      "outputs": [
        {
          "internalType": "string",
          "name": "",
          "type": "string"
        }
      ],
      "payable": false,
      "stateMutability": "view",
      "type": "function"
    }
  ],
  "bytecode": "0x608060405233600360006101000a81548173ffffffffffffffffffffffffffffffffffffffff021916908373ffffffffffffffffffffffffffffffffffffffff16021790555034801561005157600080fd5b5061583680620000626000396000f3fe608060405234801561001057600080fd5b506004361061021c5760003560e01c806387eb9ae611610125578063c36fe3d6116100ad578063e16d5f331161007c578063e16d5f33146123a2578063e2ade5241461245f578063e85befc214612668578063ecfdd79514612725578063f96b817f1461288f5761021c565b8063c36fe3d614611fdc578063d9cda636146120b6578063df425dc31461220a578063e11df93a146122c75761021c565b80639e2c4260116100f45780639e2c426014611a92578063a24029ea14611c0b578063a6595d9914611d06578063b537cb5a14611dc3578063bfda4a4914611f355761021c565b806387eb9ae6146116f9578063916100a81461184d57806398b704b61461193c5780639cbfe22e146119f95761021c565b8063449fc10f116101a85780636309463e116101775780636309463e1461106957806367926ee71461119d57806367fb7737146112ad57806378b9aaa21461141f5780638095bdc4146115535761021c565b8063449fc10f14610cae5780634b06160414610de2578063562fe4a014610ef25780635c9847d914610fed5761021c565b80631a50389a116101ef5780631a50389a146106775780631b584281146107c957806324e0791314610845578063276b6852146109af5780633e7eb39e14610ae35761021c565b806301caf9f5146102215780630e093e95146103ec5780630ff3e5b3146104a95780631457bfbf14610613575b600080fd5b6103716004803603604081101561023757600080fd5b810190808035906020019064010000000081111561025457600080fd5b82018360208201111561026657600080fd5b8035906020019184600183028401116401000000008311171561028857600080fd5b91908080601f016020809104026020016040519081016040528093929190818152602001838380828437600081840152601f19601f820116905080830192505050505050509192919290803590602001906401000000008111156102eb57600080fd5b8201836020820111156102fd57600080fd5b8035906020019184600183028401116401000000008311171561031f57600080fd5b91908080601f016020809104026020016040519081016040528093929190818152602001838380828437600081840152601f19601f8201169050808301925050505050505091929192905050506129f9565b6040518080602001828103825283818151815260200191508051906020019080838360005b838110156103b1578082015181840152602081019050610396565b50505050905090810190601f1680156103de5780820380516001836020036101000a031916815260200191505b509250505060405180910390f35b61042e6004803603602081101561040257600080fd5b81019080803573ffffffffffffffffffffffffffffffffffffffff169060200190929190505050612b6c565b6040518080602001828103825283818151815260200191508051906020019080838360005b8381101561046e578082015181840152602081019050610453565b50505050905090810190601f16801561049b5780820380516001836020036101000a031916815260200191505b509250505060405180910390f35b6105f9600480360360408110156104bf57600080fd5b81019080803590602001906401000000008111156104dc57600080fd5b8201836020820111156104ee57600080fd5b8035906020019184600183028401116401000000008311171561051057600080fd5b91908080601f016020809104026020016040519081016040528093929190818152602001838380828437600081840152601f19601f8201169050808301925050505050505091929192908035906020019064010000000081111561057357600080fd5b82018360208201111561058557600080fd5b803590602001918460018302840111640100000000831117156105a757600080fd5b91908080601f016020809104026020016040519081016040528093929190818152602001838380828437600081840152601f19601f820116905080830192505050505050509192919290505050612c1c565b604051808215151515815260200191505060405180910390f35b6106756004803603604081101561062957600080fd5b81019080803573ffffffffffffffffffffffffffffffffffffffff169060200190929190803573ffffffffffffffffffffffffffffffffffffffff169060200190929190505050612c77565b005b6107c76004803603604081101561068d57600080fd5b81019080803590602001906401000000008111156106aa57600080fd5b8201836020820111156106bc57600080fd5b803590602001918460018302840111640100000000831117156106de57600080fd5b91908080601f016020809104026020016040519081016040528093929190818152602001838380828437600081840152601f19601f8201169050808301925050505050505091929192908035906020019064010000000081111561074157600080fd5b82018360208201111561075357600080fd5b8035906020019184600183028401116401000000008311171561077557600080fd5b91908080601f016020809104026020016040519081016040528093929190818152602001838380828437600081840152601f19601f820116905080830192505050505050509192919290505050612d5b565b005b61082b600480360360408110156107df57600080fd5b81019080803573ffffffffffffffffffffffffffffffffffffffff169060200190929190803573ffffffffffffffffffffffffffffffffffffffff169060200190929190505050612ebd565b604051808215151515815260200191505060405180910390f35b6109956004803603604081101561085b57600080fd5b810190808035906020019064010000000081111561087857600080fd5b82018360208201111561088a57600080fd5b803590602001918460018302840111640100000000831117156108ac57600080fd5b91908080601f016020809104026020016040519081016040528093929190818152602001838380828437600081840152601f19601f8201169050808301925050505050505091929192908035906020019064010000000081111561090f57600080fd5b82018360208201111561092157600080fd5b8035906020019184600183028401116401000000008311171561094357600080fd5b91908080601f016020809104026020016040519081016040528093929190818152602001838380828437600081840152601f19601f820116905080830192505050505050509192919290505050612eec565b604051808215151515815260200191505060405180910390f35b610a68600480360360208110156109c557600080fd5b81019080803590602001906401000000008111156109e257600080fd5b8201836020820111156109f457600080fd5b80359060200191846001830284011164010000000083111715610a1657600080fd5b91908080601f016020809104026020016040519081016040528093929190818152602001838380828437600081840152601f19601f820116905080830192505050505050509192919290505050612fd4565b6040518080602001828103825283818151815260200191508051906020019080838360005b83811015610aa8578082015181840152602081019050610a8d565b50505050905090810190601f168015610ad55780820380516001836020036101000a031916815260200191505b509250505060405180910390f35b610c3360048036036040811015610af957600080fd5b8101908080359060200190640100000000811115610b1657600080fd5b820183602082011115610b2857600080fd5b80359060200191846001830284011164010000000083111715610b4a57600080fd5b91908080601f016020809104026020016040519081016040528093929190818152602001838380828437600081840152601f19601f82011690508083019250505050505050919291929080359060200190640100000000811115610bad57600080fd5b820183602082011115610bbf57600080fd5b80359060200191846001830284011164010000000083111715610be157600080fd5b91908080601f016020809104026020016040519081016040528093929190818152602001838380828437600081840152601f19601f82011690508083019250505050505050919291929050505061309a565b6040518080602001828103825283818151815260200191508051906020019080838360005b83811015610c73578082015181840152602081019050610c58565b50505050905090810190601f168015610ca05780820380516001836020036101000a031916815260200191505b509250505060405180910390f35b610d6760048036036020811015610cc457600080fd5b8101908080359060200190640100000000811115610ce157600080fd5b820183602082011115610cf357600080fd5b80359060200191846001830284011164010000000083111715610d1557600080fd5b91908080601f016020809104026020016040519081016040528093929190818152602001838380828437600081840152601f19601f820116905080830192505050505050509192919290505050613183565b6040518080602001828103825283818151815260200191508051906020019080838360005b83811015610da7578082015181840152602081019050610d8c565b50505050905090810190601f168015610dd45780820380516001836020036101000a031916815260200191505b509250505060405180910390f35b610e9b60048036036020811015610df857600080fd5b8101908080359060200190640100000000811115610e1557600080fd5b820183602082011115610e2757600080fd5b80359060200191846001830284011164010000000083111715610e4957600080fd5b91908080601f016020809104026020016040519081016040528093929190818152602001838380828437600081840152601f19601f82011690508083019250505050505050919291929050505061328e565b6040518080602001828103825283818151815260200191508051906020019060200280838360005b83811015610ede578082015181840152602081019050610ec3565b505050509050019250505060405180910390f35b610fab60048036036020811015610f0857600080fd5b8101908080359060200190640100000000811115610f2557600080fd5b820183602082011115610f3757600080fd5b80359060200191846001830284011164010000000083111715610f5957600080fd5b91908080601f016020809104026020016040519081016040528093929190818152602001838380828437600081840152601f19601f82011690508083019250505050505050919291929050505061348c565b604051808273ffffffffffffffffffffffffffffffffffffffff1673ffffffffffffffffffffffffffffffffffffffff16815260200191505060405180910390f35b61104f6004803603604081101561100357600080fd5b81019080803573ffffffffffffffffffffffffffffffffffffffff169060200190929190803573ffffffffffffffffffffffffffffffffffffffff1690602001909291905050506134d5565b604051808215151515815260200191505060405180910390f35b6111226004803603602081101561107f57600080fd5b810190808035906020019064010000000081111561109c57600080fd5b8201836020820111156110ae57600080fd5b803590602001918460018302840111640100000000831117156110d057600080fd5b91908080601f016020809104026020016040519081016040528093929190818152602001838380828437600081840152601f19601f820116905080830192505050505050509192919290505050613569565b6040518080602001828103825283818151815260200191508051906020019080838360005b83811015611162578082015181840152602081019050611147565b50505050905090810190601f16801561118f5780820380516001836020036101000a031916815260200191505b509250505060405180910390f35b611256600480360360208110156111b357600080fd5b81019080803590602001906401000000008111156111d057600080fd5b8201836020820111156111e257600080fd5b8035906020019184600183028401116401000000008311171561120457600080fd5b91908080601f016020809104026020016040519081016040528093929190818152602001838380828437600081840152601f19601f820116905080830192505050505050509192919290505050613674565b6040518080602001828103825283818151815260200191508051906020019060200280838360005b8381101561129957808201518184015260208101905061127e565b505050509050019250505060405180910390f35b61141d600480360360608110156112c357600080fd5b81019080803590602001906401000000008111156112e057600080fd5b8201836020820111156112f257600080fd5b8035906020019184600183028401116401000000008311171561131457600080fd5b91908080601f016020809104026020016040519081016040528093929190818152602001838380828437600081840152601f19601f820116905080830192505050505050509192919290803573ffffffffffffffffffffffffffffffffffffffff1690602001909291908035906020019064010000000081111561139757600080fd5b8201836020820111156113a957600080fd5b803590602001918460018302840111640100000000831117156113cb57600080fd5b91908080601f016020809104026020016040519081016040528093929190818152602001838380828437600081840152601f19601f820116905080830192505050505050509192919290505050613879565b005b6114d86004803603602081101561143557600080fd5b810190808035906020019064010000000081111561145257600080fd5b82018360208201111561146457600080fd5b8035906020019184600183028401116401000000008311171561148657600080fd5b91908080601f016020809104026020016040519081016040528093929190818152602001838380828437600081840152601f19601f820116905080830192505050505050509192919290505050613a39565b6040518080602001828103825283818151815260200191508051906020019080838360005b838110156115185780820151818401526020810190506114fd565b50505050905090810190601f1680156115455780820380516001836020036101000a031916815260200191505b509250505060405180910390f35b6116e36004803603608081101561156957600080fd5b810190808035906020019064010000000081111561158657600080fd5b82018360208201111561159857600080fd5b803590602001918460018302840111640100000000831117156115ba57600080fd5b91908080601f016020809104026020016040519081016040528093929190818152602001838380828437600081840152601f19601f8201169050808301925050505050505091929192908035906020019064010000000081111561161d57600080fd5b82018360208201111561162f57600080fd5b8035906020019184600183028401116401000000008311171561165157600080fd5b91908080601f016020809104026020016040519081016040528093929190818152602001838380828437600081840152601f19601f820116905080830192505050505050509192919290803573ffffffffffffffffffffffffffffffffffffffff169060200190929190803573ffffffffffffffffffffffffffffffffffffffff169060200190929190505050613aff565b6040518082815260200191505060405180910390f35b6117d26004803603604081101561170f57600080fd5b81019080803573ffffffffffffffffffffffffffffffffffffffff1690602001909291908035906020019064010000000081111561174c57600080fd5b82018360208201111561175e57600080fd5b8035906020019184600183028401116401000000008311171561178057600080fd5b91908080601f016020809104026020016040519081016040528093929190818152602001838380828437600081840152601f19601f8201169050808301925050505050505091929192905050506142c1565b6040518080602001828103825283818151815260200191508051906020019080838360005b838110156118125780820151818401526020810190506117f7565b50505050905090810190601f16801561183f5780820380516001836020036101000a031916815260200191505b509250505060405180910390f35b6119266004803603604081101561186357600080fd5b810190808035906020019064010000000081111561188057600080fd5b82018360208201111561189257600080fd5b803590602001918460018302840111640100000000831117156118b457600080fd5b91908080601f016020809104026020016040519081016040528093929190818152602001838380828437600081840152601f19601f820116905080830192505050505050509192919290803573ffffffffffffffffffffffffffffffffffffffff16906020019092919050505061440a565b6040518082815260200191505060405180910390f35b61197e6004803603602081101561195257600080fd5b81019080803573ffffffffffffffffffffffffffffffffffffffff1690602001909291905050506146a6565b6040518080602001828103825283818151815260200191508051906020019080838360005b838110156119be5780820151818401526020810190506119a3565b50505050905090810190601f1680156119eb5780820380516001836020036101000a031916815260200191505b509250505060405180910390f35b611a3b60048036036020811015611a0f57600080fd5b81019080803573ffffffffffffffffffffffffffffffffffffffff169060200190929190505050614756565b6040518080602001828103825283818151815260200191508051906020019060200280838360005b83811015611a7e578082015181840152602081019050611a63565b505050509050019250505060405180910390f35b611abe60048036036020811015611aa857600080fd5b81019080803590602001909291905050506148b5565b6040518080602001806020018573ffffffffffffffffffffffffffffffffffffffff1673ffffffffffffffffffffffffffffffffffffffff1681526020018473ffffffffffffffffffffffffffffffffffffffff1673ffffffffffffffffffffffffffffffffffffffff168152602001838103835287818151815260200191508051906020019080838360005b83811015611b66578082015181840152602081019050611b4b565b50505050905090810190601f168015611b935780820380516001836020036101000a031916815260200191505b50838103825286818151815260200191508051906020019080838360005b83811015611bcc578082015181840152602081019050611bb1565b50505050905090810190601f168015611bf95780820380516001836020036101000a031916815260200191505b50965050505050505060405180910390f35b611cc460048036036020811015611c2157600080fd5b8101908080359060200190640100000000811115611c3e57600080fd5b820183602082011115611c5057600080fd5b80359060200191846001830284011164010000000083111715611c7257600080fd5b91908080601f016020809104026020016040519081016040528093929190818152602001838380828437600081840152601f19601f820116905080830192505050505050509192919290505050614a62565b604051808273ffffffffffffffffffffffffffffffffffffffff1673ffffffffffffffffffffffffffffffffffffffff16815260200191505060405180910390f35b611d4860048036036020811015611d1c57600080fd5b81019080803573ffffffffffffffffffffffffffffffffffffffff169060200190929190505050614af5565b6040518080602001828103825283818151815260200191508051906020019080838360005b83811015611d88578082015181840152602081019050611d6d565b50505050905090810190601f168015611db55780820380516001836020036101000a031916815260200191505b509250505060405180910390f35b611f3360048036036060811015611dd957600080fd5b8101908080359060200190640100000000811115611df657600080fd5b820183602082011115611e0857600080fd5b80359060200191846001830284011164010000000083111715611e2a57600080fd5b91908080601f016020809104026020016040519081016040528093929190818152602001838380828437600081840152601f19601f820116905080830192505050505050509192919290803573ffffffffffffffffffffffffffffffffffffffff16906020019092919080359060200190640100000000811115611ead57600080fd5b820183602082011115611ebf57600080fd5b80359060200191846001830284011164010000000083111715611ee157600080fd5b91908080601f016020809104026020016040519081016040528093929190818152602001838380828437600081840152601f19601f820116905080830192505050505050509192919290505050614ba5565b005b611f6160048036036020811015611f4b57600080fd5b8101908080359060200190929190505050614d53565b6040518080602001828103825283818151815260200191508051906020019080838360005b83811015611fa1578082015181840152602081019050611f86565b50505050905090810190601f168015611fce5780820380516001836020036101000a031916815260200191505b509250505060405180910390f35b61200860048036036020811015611ff257600080fd5b8101908080359060200190929190505050614e16565b60405180806020018373ffffffffffffffffffffffffffffffffffffffff1673ffffffffffffffffffffffffffffffffffffffff168152602001828103825284818151815260200191508051906020019080838360005b8381101561207a57808201518184015260208101905061205f565b50505050905090810190601f1680156120a75780820380516001836020036101000a031916815260200191505b50935050505060405180910390f35b61218f600480360360408110156120cc57600080fd5b81019080803573ffffffffffffffffffffffffffffffffffffffff1690602001909291908035906020019064010000000081111561210957600080fd5b82018360208201111561211b57600080fd5b8035906020019184600183028401116401000000008311171561213d57600080fd5b91908080601f016020809104026020016040519081016040528093929190818152602001838380828437600081840152601f19601f820116905080830192505050505050509192919290505050614eff565b6040518080602001828103825283818151815260200191508051906020019080838360005b838110156121cf5780820151818401526020810190506121b4565b50505050905090810190601f1680156121fc5780820380516001836020036101000a031916815260200191505b509250505060405180910390f35b61224c6004803603602081101561222057600080fd5b81019080803573ffffffffffffffffffffffffffffffffffffffff169060200190929190505050614fd2565b6040518080602001828103825283818151815260200191508051906020019080838360005b8381101561228c578082015181840152602081019050612271565b50505050905090810190601f1680156122b95780820380516001836020036101000a031916815260200191505b509250505060405180910390f35b6123a0600480360360408110156122dd57600080fd5b81019080803590602001906401000000008111156122fa57600080fd5b82018360208201111561230c57600080fd5b8035906020019184600183028401116401000000008311171561232e57600080fd5b91908080601f016020809104026020016040519081016040528093929190818152602001838380828437600081840152601f19601f820116905080830192505050505050509192919290803573ffffffffffffffffffffffffffffffffffffffff1690602001909291905050506150b3565b005b6123e4600480360360208110156123b857600080fd5b81019080803573ffffffffffffffffffffffffffffffffffffffff16906020019092919050505061518e565b6040518080602001828103825283818151815260200191508051906020019080838360005b83811015612424578082015181840152602081019050612409565b50505050905090810190601f1680156124515780820380516001836020036101000a031916815260200191505b509250505060405180910390f35b6126666004803603608081101561247557600080fd5b810190808035906020019064010000000081111561249257600080fd5b8201836020820111156124a457600080fd5b803590602001918460018302840111640100000000831117156124c657600080fd5b91908080601f016020809104026020016040519081016040528093929190818152602001838380828437600081840152601f19601f8201169050808301925050505050505091929192908035906020019064010000000081111561252957600080fd5b82018360208201111561253b57600080fd5b8035906020019184600183028401116401000000008311171561255d57600080fd5b91908080601f016020809104026020016040519081016040528093929190818152602001838380828437600081840152601f19601f820116905080830192505050505050509192919290803573ffffffffffffffffffffffffffffffffffffffff169060200190929190803590602001906401000000008111156125e057600080fd5b8201836020820111156125f257600080fd5b8035906020019184600183028401116401000000008311171561261457600080fd5b91908080601f016020809104026020016040519081016040528093929190818152602001838380828437600081840152601f19601f82011690508083019250505050505050919291929050505061526f565b005b6126aa6004803603602081101561267e57600080fd5b81019080803573ffffffffffffffffffffffffffffffffffffffff169060200190929190505050615415565b6040518080602001828103825283818151815260200191508051906020019080838360005b838110156126ea5780820151818401526020810190506126cf565b50505050905090810190601f1680156127175780820380516001836020036101000a031916815260200191505b509250505060405180910390f35b6128756004803603604081101561273b57600080fd5b810190808035906020019064010000000081111561275857600080fd5b82018360208201111561276a57600080fd5b8035906020019184600183028401116401000000008311171561278c57600080fd5b91908080601f016020809104026020016040519081016040528093929190818152602001838380828437600081840152601f19601f820116905080830192505050505050509192919290803590602001906401000000008111156127ef57600080fd5b82018360208201111561280157600080fd5b8035906020019184600183028401116401000000008311171561282357600080fd5b91908080601f016020809104026020016040519081016040528093929190818152602001838380828437600081840152601f19601f8201169050808301925050505050505091929192905050506154f6565b604051808215151515815260200191505060405180910390f35b6129df600480360360408110156128a557600080fd5b81019080803590602001906401000000008111156128c257600080fd5b8201836020820111156128d457600080fd5b803590602001918460018302840111640100000000831117156128f657600080fd5b91908080601f016020809104026020016040519081016040528093929190818152602001838380828437600081840152601f19601f8201169050808301925050505050505091929192908035906020019064010000000081111561295957600080fd5b82018360208201111561296b57600080fd5b8035906020019184600183028401116401000000008311171561298d57600080fd5b91908080601f016020809104026020016040519081016040528093929190818152602001838380828437600081840152601f19601f820116905080830192505050505050509192919290505050615551565b604051808215151515815260200191505060405180910390f35b60606010836040518082805190602001908083835b60208310612a315780518252602082019150602081019050602083039250612a0e565b6001836020036101000a0380198251168184511680821785525050505050509050019150509081526020016040518091039020826040518082805190602001908083835b60208310612a985780518252602082019150602081019050602083039250612a75565b6001836020036101000a03801982511681845116808217855250505050505090500191505090815260200160405180910390208054600181600116156101000203166002900480601f016020809104026020016040519081016040528092919081815260200182805460018160011615610100020316600290048015612b5f5780601f10612b3457610100808354040283529160200191612b5f565b820191906000526020600020905b815481529060010190602001808311612b4257829003601f168201915b5050505050905092915050565b600f6020528060005260406000206000915090508054600181600116156101000203166002900480601f016020809104026020016040519081016040528092919081815260200182805460018160011615610100020316600290048015612c145780601f10612be957610100808354040283529160200191612c14565b820191906000526020600020905b815481529060010190602001808311612bf757829003601f168201915b505050505081565b600682805160208101820180518482526020830160208501208183528095505050505050818051602081018201805184825260208301602085012081835280955050505050506000915091509054906101000a900460ff1681565b6000600760008473ffffffffffffffffffffffffffffffffffffffff1673ffffffffffffffffffffffffffffffffffffffff16815260200190815260200160002060008373ffffffffffffffffffffffffffffffffffffffff1673ffffffffffffffffffffffffffffffffffffffff16815260200190815260200160002060006101000a81548160ff021916908315150217905550600f60008373ffffffffffffffffffffffffffffffffffffffff1673ffffffffffffffffffffffffffffffffffffffff1681526020019081526020016000206000612d579190615664565b5050565b60006006836040518082805190602001908083835b60208310612d935780518252602082019150602081019050602083039250612d70565b6001836020036101000a0380198251168184511680821785525050505050509050019150509081526020016040518091039020826040518082805190602001908083835b60208310612dfa5780518252602082019150602081019050602083039250612dd7565b6001836020036101000a038019825116818451168082178552505050505050905001915050908152602001604051809103902060006101000a81548160ff021916908315150217905550600e826040518082805190602001908083835b60208310612e7a5780518252602082019150602081019050602083039250612e57565b6001836020036101000a03801982511681845116808217855250505050505090500191505090815260200160405180910390206000612eb99190615664565b5050565b60076020528160005260406000206020528060005260406000206000915091509054906101000a900460ff1681565b6000600d836040518082805190602001908083835b60208310612f245780518252602082019150602081019050602083039250612f01565b6001836020036101000a0380198251168184511680821785525050505050509050019150509081526020016040518091039020826040518082805190602001908083835b60208310612f8b5780518252602082019150602081019050602083039250612f68565b6001836020036101000a038019825116818451168082178552505050505050905001915050908152602001604051809103902060009054906101000a900460ff16905092915050565b600b818051602081018201805184825260208301602085012081835280955050505050506000915090508054600181600116156101000203166002900480601f0160208091040260200160405190810160405280929190818152602001828054600181600116156101000203166002900480156130925780601f1061306757610100808354040283529160200191613092565b820191906000526020600020905b81548152906001019060200180831161307557829003601f168201915b505050505081565b60108280516020810182018051848252602083016020850120818352809550505050505081805160208101820180518482526020830160208501208183528095505050505050600091509150508054600181600116156101000203166002900480601f01602080910402602001604051908101604052809291908181526020018280546001816001161561010002031660029004801561317b5780601f106131505761010080835404028352916020019161317b565b820191906000526020600020905b81548152906001019060200180831161315e57829003601f168201915b505050505081565b6060600e826040518082805190602001908083835b602083106131bb5780518252602082019150602081019050602083039250613198565b6001836020036101000a03801982511681845116808217855250505050505090500191505090815260200160405180910390208054600181600116156101000203166002900480601f0160208091040260200160405190810160405280929190818152602001828054600181600116156101000203166002900480156132825780601f1061325757610100808354040283529160200191613282565b820191906000526020600020905b81548152906001019060200180831161326557829003601f168201915b50505050509050919050565b60606000600a836040518082805190602001908083835b602083106132c857805182526020820191506020810190506020830392506132a5565b6001836020036101000a0380198251168184511680821785525050505050509050019150509081526020016040518091039020805490509050806040519080825280602002602001820160405280156133305781602001602082028038833980820191505090505b50915060008090505b8181101561348557613460600a856040518082805190602001908083835b6020831061337a5780518252602082019150602081019050602083039250613357565b6001836020036101000a038019825116818451168082178552505050505050905001915050908152602001604051809103902082815481106133b857fe5b906000526020600020018054600181600116156101000203166002900480601f0160208091040260200160405190810160405280929190818152602001828054600181600116156101000203166002900480156134565780601f1061342b57610100808354040283529160200191613456565b820191906000526020600020905b81548152906001019060200180831161343957829003601f168201915b5050505050615639565b83828151811061346c57fe5b6020026020010181815250508080600101915050613339565b5050919050565b6004818051602081018201805184825260208301602085012081835280955050505050506000915054906101000a900473ffffffffffffffffffffffffffffffffffffffff1681565b6000600760008473ffffffffffffffffffffffffffffffffffffffff1673ffffffffffffffffffffffffffffffffffffffff16815260200190815260200160002060008373ffffffffffffffffffffffffffffffffffffffff1673ffffffffffffffffffffffffffffffffffffffff16815260200190815260200160002060009054906101000a900460ff16905092915050565b6060600b826040518082805190602001908083835b602083106135a1578051825260208201915060208101905060208303925061357e565b6001836020036101000a03801982511681845116808217855250505050505090500191505090815260200160405180910390208054600181600116156101000203166002900480601f0160208091040260200160405190810160405280929190818152602001828054600181600116156101000203166002900480156136685780601f1061363d57610100808354040283529160200191613668565b820191906000526020600020905b81548152906001019060200180831161364b57829003601f168201915b50505050509050919050565b606060006008836040518082805190602001908083835b602083106136ae578051825260208201915060208101905060208303925061368b565b6001836020036101000a0380198251168184511680821785525050505050509050019150509081526020016040518091039020805490509050806040519080825280602002602001820160405280156137165781602001602082028038833980820191505090505b50915060008090505b818110156138725761384d6008856040518082805190602001908083835b60208310613760578051825260208201915060208101905060208303925061373d565b6001836020036101000a0380198251168184511680821785525050505050509050019150509081526020016040518091039020828154811061379e57fe5b90600052602060002090600202016000018054600181600116156101000203166002900480601f0160208091040260200160405190810160405280929190818152602001828054600181600116156101000203166002900480156138435780601f1061381857610100808354040283529160200191613843565b820191906000526020600020905b81548152906001019060200180831161382657829003601f168201915b5050505050615639565b83828151811061385957fe5b602002602001018181525050808060010191505061371f565b5050919050565b80600b846040518082805190602001908083835b602083106138b0578051825260208201915060208101905060208303925061388d565b6001836020036101000a038019825116818451168082178552505050505050905001915050908152602001604051809103902090805190602001906138f69291906156ac565b506001600d846040518082805190602001908083835b6020831061392f578051825260208201915060208101905060208303925061390c565b6001836020036101000a0380198251168184511680821785525050505050509050019150509081526020016040518091039020826040518082805190602001908083835b602083106139965780518252602082019150602081019050602083039250613973565b6001836020036101000a038019825116818451168082178552505050505050905001915050908152602001604051809103902060006101000a81548160ff02191690831515021790555080600c60008473ffffffffffffffffffffffffffffffffffffffff1673ffffffffffffffffffffffffffffffffffffffff1681526020019081526020016000209080519060200190613a339291906156ac565b50505050565b600e818051602081018201805184825260208301602085012081835280955050505050506000915090508054600181600116156101000203166002900480601f016020809104026020016040519081016040528092919081815260200182805460018160011615610100020316600290048015613af75780601f10613acc57610100808354040283529160200191613af7565b820191906000526020600020905b815481529060010190602001808311613ada57829003601f168201915b505050505081565b60008060018060405180608001604052808981526020018881526020018773ffffffffffffffffffffffffffffffffffffffff1681526020018673ffffffffffffffffffffffffffffffffffffffff16815250908060018154018082558091505090600182039060005260206000209060040201600090919290919091506000820151816000019080519060200190613b9992919061572c565b506020820151816001019080519060200190613bb692919061572c565b5060408201518160020160006101000a81548173ffffffffffffffffffffffffffffffffffffffff021916908373ffffffffffffffffffffffffffffffffffffffff16021790555060608201518160030160006101000a81548173ffffffffffffffffffffffffffffffffffffffff021916908373ffffffffffffffffffffffffffffffffffffffff160217905550505003905060016006876040518082805190602001908083835b60208310613c825780518252602082019150602081019050602083039250613c5f565b6001836020036101000a0380198251168184511680821785525050505050509050019150509081526020016040518091039020866040518082805190602001908083835b60208310613ce95780518252602082019150602081019050602083039250613cc6565b6001836020036101000a038019825116818451168082178552505050505050905001915050908152602001604051809103902060006101000a81548160ff0219169083151502179055506001600760008673ffffffffffffffffffffffffffffffffffffffff1673ffffffffffffffffffffffffffffffffffffffff16815260200190815260200160002060008573ffffffffffffffffffffffffffffffffffffffff1673ffffffffffffffffffffffffffffffffffffffff16815260200190815260200160002060006101000a81548160ff02191690831515021790555084600e876040518082805190602001908083835b60208310613dff5780518252602082019150602081019050602083039250613ddc565b6001836020036101000a03801982511681845116808217855250505050505090500191505090815260200160405180910390209080519060200190613e459291906156ac565b5084600f60008673ffffffffffffffffffffffffffffffffffffffff1673ffffffffffffffffffffffffffffffffffffffff1681526020019081526020016000209080519060200190613e999291906156ac565b50613ea26157ac565b60405180604001604052808881526020018673ffffffffffffffffffffffffffffffffffffffff1681525090506008866040518082805190602001908083835b60208310613f055780518252602082019150602081019050602083039250613ee2565b6001836020036101000a038019825116818451168082178552505050505050905001915050908152602001604051809103902081908060018154018082558091505090600182039060005260206000209060020201600090919290919091506000820151816000019080519060200190613f8092919061572c565b5060208201518160010160006101000a81548173ffffffffffffffffffffffffffffffffffffffff021916908373ffffffffffffffffffffffffffffffffffffffff160217905550505050600a876040518082805190602001908083835b602083106140015780518252602082019150602081019050602083039250613fde565b6001836020036101000a038019825116818451168082178552505050505050905001915050908152602001604051809103902086908060018154018082558091505090600182039060005260206000200160009091929091909150908051906020019061406f9291906156ac565b5050600960008573ffffffffffffffffffffffffffffffffffffffff1673ffffffffffffffffffffffffffffffffffffffff168152602001908152602001600020819080600181540180825580915050906001820390600052602060002090600202016000909192909190915060008201518160000190805190602001906140f892919061572c565b5060208201518160010160006101000a81548173ffffffffffffffffffffffffffffffffffffffff021916908373ffffffffffffffffffffffffffffffffffffffff1602179055505050507fcd7d9931f84747bdcbbec4c04be0f1df1819ed500417378f5d75b82392bc294f878787876040518080602001806020018573ffffffffffffffffffffffffffffffffffffffff1673ffffffffffffffffffffffffffffffffffffffff1681526020018473ffffffffffffffffffffffffffffffffffffffff1673ffffffffffffffffffffffffffffffffffffffff168152602001838103835287818151815260200191508051906020019080838360005b838110156142105780820151818401526020810190506141f5565b50505050905090810190601f16801561423d5780820380516001836020036101000a031916815260200191505b50838103825286818151815260200191508051906020019080838360005b8381101561427657808201518184015260208101905061425b565b50505050905090810190601f1680156142a35780820380516001836020036101000a031916815260200191505b50965050505050505060405180910390a18192505050949350505050565b6060601160008473ffffffffffffffffffffffffffffffffffffffff1673ffffffffffffffffffffffffffffffffffffffff168152602001908152602001600020826040518082805190602001908083835b602083106143365780518252602082019150602081019050602083039250614313565b6001836020036101000a03801982511681845116808217855250505050505090500191505090815260200160405180910390208054600181600116156101000203166002900480601f0160208091040260200160405190810160405280929190818152602001828054600181600116156101000203166002900480156143fd5780601f106143d2576101008083540402835291602001916143fd565b820191906000526020600020905b8154815290600101906020018083116143e057829003601f168201915b5050505050905092915050565b6000806001600060405180604001604052808781526020018673ffffffffffffffffffffffffffffffffffffffff1681525090806001815401808255809150509060018203906000526020600020906002020160009091929091909150600082015181600001908051906020019061448392919061572c565b5060208201518160010160006101000a81548173ffffffffffffffffffffffffffffffffffffffff021916908373ffffffffffffffffffffffffffffffffffffffff1602179055505050039050826004856040518082805190602001908083835b6020831061450757805182526020820191506020810190506020830392506144e4565b6001836020036101000a038019825116818451168082178552505050505050905001915050908152602001604051809103902060006101000a81548173ffffffffffffffffffffffffffffffffffffffff021916908373ffffffffffffffffffffffffffffffffffffffff16021790555083600560008573ffffffffffffffffffffffffffffffffffffffff1673ffffffffffffffffffffffffffffffffffffffff16815260200190815260200160002090805190602001906145cb9291906156ac565b507ffef92bbb747c2c8b6f3b0bf247bdd50d54cb9d7e41a14a58d8407f019c94d96e848460405180806020018373ffffffffffffffffffffffffffffffffffffffff1673ffffffffffffffffffffffffffffffffffffffff168152602001828103825284818151815260200191508051906020019080838360005b83811015614661578082015181840152602081019050614646565b50505050905090810190601f16801561468e5780820380516001836020036101000a031916815260200191505b50935050505060405180910390a18091505092915050565b60056020528060005260406000206000915090508054600181600116156101000203166002900480601f01602080910402602001604051908101604052809291908181526020018280546001816001161561010002031660029004801561474e5780601f106147235761010080835404028352916020019161474e565b820191906000526020600020905b81548152906001019060200180831161473157829003601f168201915b505050505081565b60606000600960008473ffffffffffffffffffffffffffffffffffffffff1673ffffffffffffffffffffffffffffffffffffffff168152602001908152602001600020805490509050806040519080825280602002602001820160405280156147ce5781602001602082028038833980820191505090505b50915060008090505b818110156148ae57600960008573ffffffffffffffffffffffffffffffffffffffff1673ffffffffffffffffffffffffffffffffffffffff168152602001908152602001600020818154811061482957fe5b906000526020600020906002020160010160009054906101000a900473ffffffffffffffffffffffffffffffffffffffff1683828151811061486757fe5b602002602001019073ffffffffffffffffffffffffffffffffffffffff16908173ffffffffffffffffffffffffffffffffffffffff168152505080806001019150506147d7565b5050919050565b600181815481106148c257fe5b9060005260206000209060040201600091509050806000018054600181600116156101000203166002900480601f01602080910402602001604051908101604052809291908181526020018280546001816001161561010002031660029004801561496e5780601f106149435761010080835404028352916020019161496e565b820191906000526020600020905b81548152906001019060200180831161495157829003601f168201915b505050505090806001018054600181600116156101000203166002900480601f016020809104026020016040519081016040528092919081815260200182805460018160011615610100020316600290048015614a0c5780601f106149e157610100808354040283529160200191614a0c565b820191906000526020600020905b8154815290600101906020018083116149ef57829003601f168201915b5050505050908060020160009054906101000a900473ffffffffffffffffffffffffffffffffffffffff16908060030160009054906101000a900473ffffffffffffffffffffffffffffffffffffffff16905084565b60006004826040518082805190602001908083835b60208310614a9a5780518252602082019150602081019050602083039250614a77565b6001836020036101000a038019825116818451168082178552505050505050905001915050908152602001604051809103902060009054906101000a900473ffffffffffffffffffffffffffffffffffffffff169050919050565b600c6020528060005260406000206000915090508054600181600116156101000203166002900480601f016020809104026020016040519081016040528092919081815260200182805460018160011615610100020316600290048015614b9d5780601f10614b7257610100808354040283529160200191614b9d565b820191906000526020600020905b815481529060010190602001808311614b8057829003601f168201915b505050505081565b600b836040518082805190602001908083835b60208310614bdb5780518252602082019150602081019050602083039250614bb8565b6001836020036101000a03801982511681845116808217855250505050505090500191505090815260200160405180910390206000614c1a9190615664565b600c60008373ffffffffffffffffffffffffffffffffffffffff1673ffffffffffffffffffffffffffffffffffffffff1681526020019081526020016000206000614c659190615664565b6000600d846040518082805190602001908083835b60208310614c9d5780518252602082019150602081019050602083039250614c7a565b6001836020036101000a0380198251168184511680821785525050505050509050019150509081526020016040518091039020826040518082805190602001908083835b60208310614d045780518252602082019150602081019050602083039250614ce1565b6001836020036101000a038019825116818451168082178552505050505050905001915050908152602001604051809103902060006101000a81548160ff021916908315150217905550505050565b60028181548110614d6057fe5b9060005260206000209060020201600091509050806000018054600181600116156101000203166002900480601f016020809104026020016040519081016040528092919081815260200182805460018160011615610100020316600290048015614e0c5780601f10614de157610100808354040283529160200191614e0c565b820191906000526020600020905b815481529060010190602001808311614def57829003601f168201915b5050505050905081565b60008181548110614e2357fe5b9060005260206000209060020201600091509050806000018054600181600116156101000203166002900480601f016020809104026020016040519081016040528092919081815260200182805460018160011615610100020316600290048015614ecf5780601f10614ea457610100808354040283529160200191614ecf565b820191906000526020600020905b815481529060010190602001808311614eb257829003601f168201915b5050505050908060010160009054906101000a900473ffffffffffffffffffffffffffffffffffffffff16905082565b601160205281600052604060002081805160208101820180518482526020830160208501208183528095505050505050600091509150508054600181600116156101000203166002900480601f016020809104026020016040519081016040528092919081815260200182805460018160011615610100020316600290048015614fca5780601f10614f9f57610100808354040283529160200191614fca565b820191906000526020600020905b815481529060010190602001808311614fad57829003601f168201915b505050505081565b6060600f60008373ffffffffffffffffffffffffffffffffffffffff1673ffffffffffffffffffffffffffffffffffffffff1681526020019081526020016000208054600181600116156101000203166002900480601f0160208091040260200160405190810160405280929190818152602001828054600181600116156101000203166002900480156150a75780601f1061507c576101008083540402835291602001916150a7565b820191906000526020600020905b81548152906001019060200180831161508a57829003601f168201915b50505050509050919050565b6004826040518082805190602001908083835b602083106150e957805182526020820191506020810190506020830392506150c6565b6001836020036101000a038019825116818451168082178552505050505050905001915050908152602001604051809103902060006101000a81549073ffffffffffffffffffffffffffffffffffffffff0219169055600560008273ffffffffffffffffffffffffffffffffffffffff1673ffffffffffffffffffffffffffffffffffffffff168152602001908152602001600020600061518a9190615664565b5050565b6060600c60008373ffffffffffffffffffffffffffffffffffffffff1673ffffffffffffffffffffffffffffffffffffffff1681526020019081526020016000208054600181600116156101000203166002900480601f0160208091040260200160405190810160405280929190818152602001828054600181600116156101000203166002900480156152635780601f1061523857610100808354040283529160200191615263565b820191906000526020600020905b81548152906001019060200180831161524657829003601f168201915b50505050509050919050565b806010856040518082805190602001908083835b602083106152a65780518252602082019150602081019050602083039250615283565b6001836020036101000a0380198251168184511680821785525050505050509050019150509081526020016040518091039020846040518082805190602001908083835b6020831061530d57805182526020820191506020810190506020830392506152ea565b6001836020036101000a038019825116818451168082178552505050505050905001915050908152602001604051809103902090805190602001906153539291906156ac565b5080601160008473ffffffffffffffffffffffffffffffffffffffff1673ffffffffffffffffffffffffffffffffffffffff168152602001908152602001600020846040518082805190602001908083835b602083106153c857805182526020820191506020810190506020830392506153a5565b6001836020036101000a0380198251168184511680821785525050505050509050019150509081526020016040518091039020908051906020019061540e9291906156ac565b5050505050565b6060600560008373ffffffffffffffffffffffffffffffffffffffff1673ffffffffffffffffffffffffffffffffffffffff1681526020019081526020016000208054600181600116156101000203166002900480601f0160208091040260200160405190810160405280929190818152602001828054600181600116156101000203166002900480156154ea5780601f106154bf576101008083540402835291602001916154ea565b820191906000526020600020905b8154815290600101906020018083116154cd57829003601f168201915b50505050509050919050565b600d82805160208101820180518482526020830160208501208183528095505050505050818051602081018201805184825260208301602085012081835280955050505050506000915091509054906101000a900460ff1681565b60006006836040518082805190602001908083835b602083106155895780518252602082019150602081019050602083039250615566565b6001836020036101000a0380198251168184511680821785525050505050509050019150509081526020016040518091039020826040518082805190602001908083835b602083106155f057805182526020820191506020810190506020830392506155cd565b6001836020036101000a038019825116818451168082178552505050505050905001915050908152602001604051809103902060009054906101000a900460ff16905092915050565b60006060829050600081511415615656576000801b91505061565f565b60208301519150505b919050565b50805460018160011615610100020316600290046000825580601f1061568a57506156a9565b601f0160209004906000526020600020908101906156a891906157dc565b5b50565b828054600181600116156101000203166002900490600052602060002090601f016020900481019282601f106156ed57805160ff191683800117855561571b565b8280016001018555821561571b579182015b8281111561571a5782518255916020019190600101906156ff565b5b50905061572891906157dc565b5090565b828054600181600116156101000203166002900490600052602060002090601f016020900481019282601f1061576d57805160ff191683800117855561579b565b8280016001018555821561579b579182015b8281111561579a57825182559160200191906001019061577f565b5b5090506157a891906157dc565b5090565b604051806040016040528060608152602001600073ffffffffffffffffffffffffffffffffffffffff1681525090565b6157fe91905b808211156157fa5760008160009055506001016157e2565b5090565b9056fea265627a7a7231582040b325436d7369b60a966c3ea4e6fe6539fcb117c17e349049e83c7c0c5bea2b64736f6c63430005100032",
  "source": "pragma solidity ^0.5.0;\n\n\ncontract RBAC{\n\nuint256 constant NO_ROLE = 0;\n\n\nevent ProfileAdded(string username, address _address);\nevent AssociationAdded(string child, string parent, address _child, address _parent);\nevent BearerAdded(address account, uint256 role);\nevent BearerRemoved(address account, uint256 role);\n\n\nstruct Profile{\n    string profile_description;\n    address username;\n}\n\nProfile[] public profiles;\n\nstruct Association{\n    string __child;\n    string __parent;\n    address childd;\n    address parentt;\n}\n\nAssociation[] public associations;\n\nstruct Role{\n    string description;\n    mapping (address => bool) bearers;\n}\n\nRole[] public roles;\naddress admin = msg.sender;\n\n\nmapping (string => address) public profileExists;\nmapping (address => string) public profileName;\nmapping (string => mapping(string => bool)) public isAssoc;\nmapping (address => mapping(address=>bool)) public isAssoc_address;\nmapping (string => Profile[]) allChildren;\nmapping (address => Profile[]) allChildrenAddress;\nmapping (string => string[]) allParents;\nmapping (string => string) public allRoles_Names;\nmapping (address => string) public allRoles_Address;\nmapping (string => mapping(string => bool)) public has_Role;\nmapping (string => string) public names_to_parents;\nmapping (address => string) public address_to_parents;\nmapping (string => mapping(string => string)) public user_to_perm;       // DER Entity Name -> Model -> Permission\nmapping (address => mapping(string => string)) public address_to_perm;  // DER Entity Address -> Model -> Permission\n\n\nfunction addPermissions(string memory user, string memory model, address _user, string memory perm) public\n{\n    user_to_perm[user][model] = (perm);\n    address_to_perm[_user][model] = (perm);\n}\n\n\n\nfunction queryPermissions(string memory user, string memory model) public view returns(string memory children)\n{\n    // uint256 length = user_to_perm[user][model].length;\n    // children = new bytes32[](length);\n\n    // for(uint256 i = 0; i < length; i++)\n    // {\n    //     children[i] = stringToBytes32(user_to_perm[user][model]);\n    // }\n    return user_to_perm[user][model];\n}\n\nfunction queryAddressPermissions(address _user, string memory model) public view returns(string memory children)\n{\n    // uint256 length = address_to_perm[_user][model].length;\n    // children = new bytes32[](length);\n\n    // for(uint256 i = 0; i < length; i++)\n    // {\n    //     children[i] = stringToBytes32(address_to_perm[_user][model][i]);\n    // }\n    return address_to_perm[_user][model];\n}\n\nfunction createProfile(string memory _username, address user) public returns(uint256)\n{\n\n    uint256 profile_id = profiles.push(Profile({profile_description: _username, username:user})) - 1;\n    profileExists[_username] = user;\n    profileName[user] = _username;\n    emit ProfileAdded(_username, user);\n    return profile_id;\n}\n\nfunction deleteProfile(string memory _username, address user) public\n{\n    delete profileExists[_username];\n    delete profileName[user];\n}\n\nfunction profileAddress(string memory _username) public view returns(address)\n{\n    return profileExists[_username];\n}\n\nfunction profileUsername(address user) public view returns(string memory)\n{\n    return profileName[user];\n}\n\nfunction addChild(string memory _child, string memory _parent, address child, address parent) public returns(uint256)\n{\n    uint association = associations.push(Association({__child: _child, __parent:_parent, childd: child, parentt:parent})) - 1;\n    isAssoc[_child][_parent] = true;\n    isAssoc_address[child][parent] = true;\n    names_to_parents[_child] = _parent;\n    address_to_parents[child] = _parent;\n    Profile memory temp_profile = Profile(_child, child);\n    allChildren[_parent].push(temp_profile);\n    allParents[_child].push(_parent);\n    allChildrenAddress[parent].push(temp_profile);\n    emit AssociationAdded(_child, _parent, child, parent);\n    return association;\n}\n\nfunction deleteAssoc(string memory _child, string memory _parent) public\n{\n    isAssoc[_child][_parent] = false;\n    delete names_to_parents[_child];\n\n}\n\nfunction deleteAssocAddress(address _child, address _parent) public\n{\n    isAssoc_address[_child][_parent] = false;\n    delete address_to_parents[_child];\n}\n\nfunction isChild(string memory _child, string memory _parent) public view returns(bool)\n{\n    return isAssoc[_child][_parent];\n}\n\nfunction returnParent(string memory _child) public view returns(string memory)\n{\n    return names_to_parents[_child];\n}\n\nfunction returnParentFromAddress(address _child) public view returns(string memory)\n{\nreturn address_to_parents[_child];\n}\n\nfunction isChild_address(address child, address parent) public view returns(bool)\n{\n    return isAssoc_address[child][parent];\n}\n\n// Make sure that the string is no longer than 32 bytes or results will be cut\nfunction stringToBytes32(string memory source) private pure returns (bytes32 result)\n{\n    bytes memory tempEmptyStringTest = bytes(source);\n    if(tempEmptyStringTest.length == 0)\n    {\n        return 0x0;\n    }\n\n    assembly\n    {\n        result := mload(add(source,32))\n    }\n}\n\n\nfunction getChildrenNames(string memory username) public view returns(bytes32[] memory children)\n{\n    uint256 length = allChildren[username].length;\n    children = new bytes32[](length);\n\n    for(uint256 i = 0; i < length; i++)\n    {\n        children[i] = stringToBytes32(allChildren[username][i].profile_description);\n    }\n\n}\n\nfunction getParentsNames(string memory username) public view returns(bytes32[] memory parents)\n{\n    uint256 length = allParents[username].length;\n    parents = new bytes32[](length);\n\n    for(uint256 i = 0; i < length; i++)\n    {\n        parents[i] = stringToBytes32(allParents[username][i]);\n    }\n}\n\nfunction getChildrenAddresses(address _parent) public view returns(address[] memory children)\n{\n    uint256 length = allChildrenAddress[_parent].length;\n    children = new address[](length);\n\n    for(uint256 i = 0; i < length; i++)\n    {\n        children[i] = allChildrenAddress[_parent][i].username;\n    }\n\n}\n\nfunction addRoleToUser(string memory username, address _user ,string memory _role) public\n{\n    allRoles_Names[username] = _role;\n    has_Role[username][_role] = true;\n    allRoles_Address[_user] = _role;\n}\n\nfunction revokeRole(string memory username, address _user, string memory _role) public\n{\n    delete allRoles_Names[username];\n    delete allRoles_Address[_user];\n    has_Role[username][_role] = false;\n}\n\nfunction hasRole(string memory username, string memory _role) public view returns(bool)\n{\n    return has_Role[username][_role];\n}\n\nfunction getRolesfromNames(string memory username) public view returns(string memory)\n{\n    return allRoles_Names[username];\n}\n\nfunction getRolesfromAddress(address _user) public view returns(string memory)\n{\n    // uint256 length = allRoles_Address[_user].length;\n    // all_roles = new bytes32[](length);\n\n    // for(uint256 i = 0; i < length; i++)\n    // {\n    //     all_roles[i] = stringToBytes32(allRoles_Address[_user][i]);\n    // }\n\n    return allRoles_Address[_user];\n}\n\n\n}",
  "sourcePath": "/home/george/Desktop/Sandia_RBAC/Decentralized_Ethereum/contracts/RBAC.sol",
  "compiler": {
    "name": "solc",
    "version": "0.5.16+commit.9c3226ce.Emscripten.clang"
  },
  "schemaVersion": "3.3.4",
  "updatedAt": "2021-04-11T21:08:12.135Z",
  "networkType": "ethereum",
  "devdoc": {
    "methods": {}
  },
  "userdoc": {
    "methods": {}
  }
}